:100000000C9446000C945D000C945D000C945D0013
:100010000C945D000C945D000C945D000C945D00EC
:100020000C945D000C945D000C945D000C945D00DC
:100030000C945D000C945D000C945D000C945D00CC
:100040000C945D000C945D000C945D000C945D00BC
:100050000C945D000C945D000C945D000C945D00AC
:100060000C945D000C945D000C945D000C945D009C
:100070000C945D000C945D000C945D000C945D008C
:100080000C945D000C945D000C945D0011241FBE67
:10009000CFEFD0E1DEBFCDBF11E0A0E0B1E0E8EDF1
:1000A000F0E000E00BBF02C007900D92A030B10756
:1000B000D9F70E945F000C946A000C9400008091B4
:1000C00061008C6F809361008091620083708093E7
:0800D0006200FACFF894FFCFA3
:00000001FF
